:02000000842B4F
:10000800FF00030E8301B8000A08B7008A017008D0
:10001800AA007108A9007208A8007308A70074084C
:10002800A6007508A5007808A4007A08A3007B0834
:10003800A2007C08A1000C1D4828310803193128AA
:100048003608F000F1017008960035089500B101F6
:10005800093097008F018E0146283508403CF3008F
:100068003608031C013E9C3CF4007408F000F101C2
:100078007008960073089500083097000130B100A9
:100088008F018E01FB308C058B1C4E2806184D28DD
:1000980008148B100B1D522848230B112A08F00056
:1000A8002908F1002808F2002708F3002608F400C0
:1000B8002508F5002408F8002308FA002208FB00A8
:1000C8002108FC0037088A00380E8300FF0E7F0ED7
:0200D80009001D
:0E00DA00F201F101F001F801F301003008001D
:1000E8007B15FB1F7E280130F300F201F101F001BE
:0800F800FA0DF20CFF300800C4
:08010000FA1FF21300300800A1
:10010800FB14FB1F8E28FF30F300F200F100F00013
:08011800FA0DF20CFF300800A3
:06012000FB15FF30080092
:100126007B14FB1F9E28F201FA1FFF30F200F1003C
:0A013600F000FA0DF20CFF30080093
:10014000A0017208031DB5287108F2007008F100C3
:10015000F001A0157208031DB5287108F200F10125
:10016000A011201672080319C3282008F302031DEA
:10017000031CC7280310F21BCB28F00DF10DF20D64
:10018000F30BBB28C7280130FC006D20CE280230BD
:0E019000FC007420CE280430FC008020080003
:0E019E008312031330088A002F088200080025
:1001AC0083120313FB01FC01FA01730803191529CF
:1001BC00F2178E30F302F31BE6280319E6281829F0
:1001CC00F309F30A08307302031CFB28F300F10D4A
:1001DC007208F100F20108307302031CFB28F10DC8
:1001EC00F1017308031D0310032973080319032974
:1001FC000310F20CF10CF30BFE287B1B711C0D2968
:10020C00031C0D29F10A0319F20AF21B2429FA1F07
:10021C002729F209F109F10A0319F20A2729F20137
:10022C00F10127297B14FB1F2A29F201FA1F2A2925
:10023C00FF30F200F100FA0DF20C2A290130FC001B
:10024C002C290030FC002C29FF30FC00FC08031981
:0E025C00302993207108F0007208F1000800AC
:10026A0083120313FB017308031D770803198C29F2
:10027A0072087606FA007708F3077E30031C4929CC
:10028A00F30203188F294C29F302031C92297208DE
:10029A00F8007108FC007008FD00F817F617031043
:1002AA00F201F101F0011830A0007D1C66297408E2
:1002BA00F00775080318750FF10776080318760F0B
:1002CA00F207F20CF10CF00CF80CFC0CFD0C03100C
:1002DA00A00B5A29F21B7629F80DF00DF10DF20D3B
:1002EA00F3037B1B701C8829F81F8829F00A03195D
:1002FA00F10A0319F20A031D8829F20CF10CF00C19
:10030A00F30A03198F29FA1FF213003094290130D6
:10031A006D2094290230842094290430742000002E
:02032A000800C9
:10032C00831203137008F8007108F000F101F20158
:10033C00F301FB01FC019630F300FA017008F100A7
:0C034C007808F000F801F201A020080081
:10035800831203137408003A031DC7297508003A6D
:10036800031DC7297608003A031DC7297708003AF4
:10037800031DC729FF30F000FF30F1007F30F20085
:10038800FF30F300622A8312031377080319562AF1
:1003980073080319592A720876068039FA00F21789
:1003A800F617A0017208F8007108FC007008FD003B
:1003B8007408FD027508031C750FFC027608031CFF
:1003C800760FF802F801FC01FD01031CF229031065
:1003D800F20CF10CF00CF80C0130A0007708F302D5
:1003E800031CFC297E302007F30703185C2A012A26
:1003F8007E302007F307031C5F2A1830FA07FD0D2B
:10040800FC0DF80DF00DF10DF20DA00D7408F002C1
:100418007508031C750FF1027608031C760FF202AB
:10042800760DA004201C1A2A7D14252A7408F007CA
:1004380075080318750FF10776080318760AF2078E
:100448007D10FA031F307A05031D032A7B1B7D1CD0
:100458004C2A0310F00DF10DF20DA00D7408F002F6
:100468007508031C750FF1027608031C760FF2025B
:10047800760D20040139FD070318FC0A0319F80A50
:10048800031D4C2AF80CFC0CFD0CF30A03195C2A1A
:10049800FA1FF8137808F2007C08F1007D08F000D4
:1004A8000030612A01309020612A02306D20612AD3
:0E04B80004308420612A0830742000000800FF
:1004C60083120313FB01FA01F9018030F800F10CE5
:1004D600F00C031C772A7408F90775080318750FC2
:1004E600FA070318FB0A0310F01F7F2A7408FA079D
:1004F60075080318750FFB07FB0CFA0CF90CF80CC2
:10050600031C6A2A7B08F3007A08F2007908F100D6
:060516007808F000080067
:10051C0083120313F801F9011030FC00710DF80D72
:10052C00F90D7408F8027508031C750FF90203180D
:10053C00A62A7408F80775080318750FF907031035
:0A054C00F00DF10DFC0B942A0800DD
:10055600803083120313F00080303A067002031DC8
:10056600B62A3908003C0318BD2AA0308604AF30ED
:100576008605CF2A80303A06F00080307002031DCF
:10058600C62A003039020318CD2A503086045F305F
:100596008605CF2A0F30860580303A06F000803077
:1005A6007002031DD82A003039020318E22A3908DE
:1005B600003CB9003A08031C013EBA01BA02803079
:1005C600F00080303A067002031DEB2A3908643CBD
:1005D6000318F12A6430B9000030BA004B309B0092
:0205E60008000B
:1005E8008316031387100C3083129D00FF30831687
:0A05F8009200073083129200080001
:1006020083120313B901BA012030B9001030BA00C5
:1006120087160630FD00FD0B0C2B00003909F00097
:10062200700887053A080705F000031D192B132BE4
:100632008F018E01013090003A080705F00003197E
:10064200232B1D2B90010F08F100F0010E08F0047E
:100652000030F10496212830F4007E30F5000C3091
:10066200F6007A30F70035210030F4000030F50052
:0E0672000030F6008030F700AC21D6200800E2
:100680004130831203139F00CE3083169F00080071
:10069000831203131F151F1D4E2B4B2B1E08F10039
:1006A000F00183161E08F0040030F1047008831274
:1006B000AD007108AE00E830F4000130F5006322AF
:1006C000E830F4000330F5008E227008AB007108AA
:1006D000AC008030F200803071067202031D722B74
:1006E00070080A3C0318762B0615772B06110800B4
:1006F000CF208A110A128000840AAF0A0319B00AB7
:08070000F003031D782B080033
:1007080083120313AB01AC01AD01AE014023F42207
:1007180083160113F0308B04013085000130860008
:10072800113087008801013083129000860187010B
:10073800880103308316810083128F018E010130F6
:10074800B1000830970083160C1507308312960005
:10075800D0309500B20181010530B9000030BA00EF
:10076800AB220B30FB002630FC005D30FD00FD0B9A
:10077800BB2BFC0BBB2BFB0BBB2B00000000B901F8
:10078800BA01AB220B30FB002630FC005D30FD00C7
:10079800FD0BCC2BFC0BCC2BFB0BCC2B0000000057
:1007A800012300307102031DDB2B0A30700203188D
:1007B800DF2B0717E02B07130B30FB002630FC005C
:1007C8005D30FD00FD0BE62BFC0BE62BFB0BE62B4F
:1007D8000000000083160C11831290011A30FC00EF
:1007E800F830FD00FD0BF62BFC0BF62B0000012367
:1007F8007008B3007108B40000307102031D062CA4
:100808000A30700203180A2C07170B2C0713023042
:10081800FB000430FC00BA30FD00FD0B112CFC0B72
:10082800112CFB0B112C00008F018E0183160C1567
:100838000130831290003208031D272CAC30B5001C
:100848000D30B6002B2CDC30B5000530B600320870
:100858000130031D0030B2000B30FB002630FC00D5
:100868005D30FD00FD0B362CFC0B362CFB0B362CBB
:0808780000000000B02B3F2C32
:02400E004A2F37
:00000001FF
